:020000040800F2
:10000000FFFF022035050008C9040008CD040008E0
:10001000D1040008D5040008D9040008000000003D
:10002000000000000000000000000000212800087F
:10003000DD04000800000000C1280008E1040008F9
:100040008505000885050008850500088505000868
:100050008505000885050008850500088505000858
:100060008505000885050008850500088505000848
:100070008505000885050008850500088505000838
:100080008505000885050008850500088505000828
:100090008505000885050008850500088505000818
:1000A0008505000885050008850500088505000808
:1000B00085050008850500088505000885050008F8
:1000C00085050008850500088505000885050008E8
:1000D00085050008850500088505000885050008D8
:1000E00085050008850500088505000885050008C8
:1000F00085050008850500088505000885050008B8
:1001000085050008850500088505000885050008A7
:100110008505000885050008B90400088505000864
:100120008505000885050008850500088505000887
:100130008505000885050008850500088505000877
:100140008505000885050008850500088505000867
:100150008505000885050008850500088505000857
:100160008505000885050008850500088505000847
:1001700085050008850500088505000800000000C9
:100180008505000885050008850500088505000827
:100190008505000885050008850500088505000817
:0C01A0008505000885050008850500089D
:1001B00010B5054C237833B9044B13B10448AFF3A1
:1001C00000800123237010BD4004002000000000C7
:1001D000182F0008084B10B51BB108490848AFF3A9
:1001E00000800848036803B910BD074B002BFBD003
:1001F000BDE81040184700BF000000004404002084
:10020000182F00084004002000000000844641EA46
:10021000000313F003036DD1403A41D351F8043B7E
:1002200040F8043B51F8043B40F8043B51F8043BD0
:1002300040F8043B51F8043B40F8043B51F8043BC0
:1002400040F8043B51F8043B40F8043B51F8043BB0
:1002500040F8043B51F8043B40F8043B51F8043BA0
:1002600040F8043B51F8043B40F8043B51F8043B90
:1002700040F8043B51F8043B40F8043B51F8043B80
:1002800040F8043B51F8043B40F8043B51F8043B70
:1002900040F8043B51F8043B40F8043B403ABDD2DF
:1002A000303211D351F8043B40F8043B51F8043B81
:1002B00040F8043B51F8043B40F8043B51F8043B40
:1002C00040F8043B103AEDD20C3205D351F8043B10
:1002D00040F8043B043AF9D2043208D0D2071CBFDC
:1002E00011F8013B00F8013B01D30B880380604605
:1002F000704700BF082A13D38B078DD010F003037B
:100300008AD0C3F10403D21ADB071CBF11F8013BEA
:1003100000F8013B80D331F8023B20F8023B7BE739
:10032000043AD9D3013A11F8013B00F8013BF9D264
:100330000B7803704B7843708B78837060467047FE
:1003400008B5002000F0E6FF4FF4FA7002F02AF83A
:10035000012000F0DFFF4FF4FA7002F023F8F0E71D
:1003600030B595B0002401941D4B1A6C42F08052B8
:100370001A641B6C03F080530193019B0294194B88
:100380001A6842F440421A601B6803F44043029327
:10039000029B012303934FF48033049302250995B4
:1003A0004FF480030A9308230B934FF4B4730C9318
:1003B0000D9507230E9303A800F084FB00F0CCFEFC
:1003C0000F230F93109511944FF4A05312934FF4F1
:1003D0008053139305210FA800F0AAFD15B030BD7E
:1003E000003802400070004010B582B000F0CEF836
:1003F000002002F09BFC012002F098FCFFF7B0FF08
:1004000000240194012300932346802204490548D7
:1004100001F038FE01F068FE204602B010BD00BFBA
:10042000302F00084103000800B589B000220146C2
:10043000362000F0F5FE362000F024FF0023019363
:10044000174B1A6C42F010021A641B6C03F0100375
:100450000193019B02A903A800F060FE069B13B95B
:1004600000F044FE02E000F041FE40000D4BA3FB13
:1004700000239B0C013B0C480C4A026040F2E7321F
:10048000C260436000230361836000F0FBFA18B987
:10049000054800F09BF900E0012009B05DF804FB7D
:1004A0000038024083DE1B43F84500200010004066
:1004B00008B500F085F808BD08B5024800F09AF9C3
:1004C00008BD00BFF8450020704700BFFEE700BF31
:1004D000FEE700BFFEE700BFFEE700BF704700BFBA
:1004E00008B502F01FFA08BD0F49D1F8883043F46F
:1004F0007003C1F888300D4B1A6842F001021A608F
:10050000002098601A6822F0847222F480321A6007
:10051000074A5A601A6822F480221A60D8604FF0A5
:1005200000638B60704700BF00ED00E000380240C0
:1005300010300024DFF834D0002103E00C4B5B586E
:10054000435004310B480C4B42189A42F6D30B4AE5
:1005500002E0002342F8043B094B9A42F9D3FFF72B
:10056000C3FF02F0EDFBFFF73FFF7047FFFF0220E4
:100570007C2F0008000000204004002040040020E0
:1005800078460020FEE70000704700BF08B50B4B1F
:100590001A6842F400721A601A6842F480621A60A3
:1005A0001A6842F480721A60032000F027FE0F20C0
:1005B000FFF73AFFFFF7E8FF002008BD003C0240CC
:1005C000024A136801331360704700BF34460020AD
:1005D000014B1868704700BF34460020F0B583B067
:1005E0000024DAE00123A3400A6803EA0205AB42D3
:1005F00040F0D2804A68022A01D0122A10D1E608BF
:10060000083650F826C004F0070297000F22BA40BF
:100610002CEA020E0A69BA404EEA020240F826208D
:10062000026867000326BE40F64302EA060E4A68E7
:1006300002F00302BA404EEA020202604A6802F186
:10064000FF3EBEF1010F03D9112A01D0122A10D1A9
:10065000826806EA020ECA68BA404EEA0202826066
:10066000426822EA03034A68C2F30012A2401A4316
:100670004260C3681E408B68BB403343C3604B6815
:1006800013F0805F00F0888000230193454B5A6C83
:1006900042F480425A645B6C03F480430193019BF3
:1006A000A608B21C404B53F8227004F003039B00D1
:1006B0000F229A4027EA02073C4A904225D002F5D1
:1006C0008062904223D002F58062904221D002F5F0
:1006D000806290421FD002F5806290421DD002F5E8
:1006E000806290421BD002F58062904219D002F5E0
:1006F0008062904217D002F58062904215D002F5D8
:100700008062904213D1092212E0002210E00122FF
:100710000EE002220CE003220AE0042208E0052297
:1007200006E0062204E0072202E0082200E00A2296
:1007300002FA03F33B4302361B4A42F826301C4BB5
:100740001A68EB4302EA03064F6817F4803F01D0B2
:1007500045EA0206164A1660526803EA02064F6826
:1007600017F4003F01D045EA0206114A566092682C
:1007700003EA02064F6817F4801F01D045EA02061B
:100780000B4A9660D26813404E6816F4001F01D0E1
:1007900045EA0203064AD36001340F2C7FF622AFEC
:1007A00003B0F0BD003802400038014000000240B4
:1007B000003C01400AB181617047090481617047C2
:1007C0004369594041617047704700BF0268D36870
:1007D00043F00103D3600268136843F00103136020
:1007E00000207047704700BF704700BF704700BFD0
:1007F000704700BF10B5044603681A6912F0020F73
:1008000017D0DA6812F0020F13D06FF002021A61EB
:100810000123037603689B6913F0030F02D0FFF7EF
:10082000E3FF04E0FFF7DEFF2046FFF7DFFF0023D2
:10083000237623681A6912F0040F19D0DA6812F0CF
:10084000040F15D06FF004021A6102232376236887
:100850009B6913F4407F03D02046FFF7C5FF05E0F6
:100860002046FFF7BFFF2046FFF7C0FF0023237697
:1008700023681A6912F0080F19D0DA6812F0080F0D
:1008800015D06FF008021A61042323762368DB6910
:1008900013F0030F03D02046FFF7A6FF05E0204624
:1008A000FFF7A0FF2046FFF7A1FF00232376236870
:1008B0001A6912F0100F19D0DA6812F0100F15D063
:1008C0006FF010021A61082323762368DB6913F4A2
:1008D000407F03D02046FFF787FF05E02046FFF763
:1008E00081FF2046FFF782FF0023237623681A69E1
:1008F00012F0010F09D0DA6812F0010F05D06FF085
:1009000001021A612046FFF7D3FD23681A6912F02D
:10091000800F09D0DA6812F0800F05D06FF08002E6
:100920001A61204600F0CCF823681A6912F0400FD3
:1009300009D0DA6812F0400F05D06FF040021A615A
:100940002046FFF755FF23681A6912F0200F09D0DF
:10095000DA6812F0200F05D06FF020021A612046ED
:1009600000F0ACF810BD00BF0368454A904214D0B7
:10097000B0F1804F13D0A2F57C42904211D002F525
:10098000806290420FD002F5806290420DD002F555
:10099000784290420BD101220AE0012208E00122B4
:1009A00006E0012204E0012202E0012200E0002230
:1009B0001AB123F070034A681343314A90422CD095
:1009C000B0F1804F2BD0A2F57C42904229D002F5A5
:1009D0008062904227D002F58062904225D002F5D5
:1009E0007842904223D002F57052904221D002F515
:1009F000806290421FD002F5806290421DD0A2F525
:100A0000983290421BD002F58062904219D002F5D4
:100A10008062904217D1012216E0012214E00122E7
:100A200012E0012210E001220EE001220CE001227E
:100A30000AE0012208E0012206E0012204E001228E
:100A400002E0012200E000221AB123F44073CA68D8
:100A5000134303608B68C3620B688362084B984240
:100A600005D003F58063984203D1012302E00123FE
:100A700000E000230BB10B6903630123436170475E
:100A800000000140B8B110B5044690F8393013F0B9
:100A9000FF0F04D1002380F83830FFF795FE0223C2
:100AA00084F83930211D2068FFF75EFF012384F8A8
:100AB0003930002010BD0120704700BF704700BFD3
:100AC000704700BF30B583B00446036813F0010FD0
:100AD0005AD09F4B9B6803F00C03042B0AD09C4B0D
:100AE0009B6803F00C03082B0DD1994B5B6813F442
:100AF000800F08D0964B1B6813F4003F44D0636806
:100B0000002B41D19DE16368B3F5803F05D1904A48
:100B1000136843F48033136015E0B3F5A02F09D1B7
:100B20008B4B1A6842F480221A601A6842F48032B1
:100B30001A6008E0864B1A6822F480321A601A683C
:100B400022F480221A6063687BB1FFF741FD0546FD
:100B500005E0FFF73DFD401B642800F274817C4BEB
:100B60001B6813F4003FF4D00EE0FFF731FD05469B
:100B700005E0FFF72DFD401B642800F26681744BF1
:100B80001B6813F4003FF4D1236813F0020F5AD00E
:100B90006F4B9B6813F00C0F0AD06D4B9B6803F0F2
:100BA0000C03082B1BD16A4B5B6813F4800F16D122
:100BB000674B1B6813F0020F03D0E368012B40F072
:100BC00046816348036823F0F8012369F82292FA0A
:100BD000A2F2B2FA82F293400B43036033E0E3687F
:100BE000FBB101225B4B1A60FFF7F2FC054605E002
:100BF000FFF7EEFC401B022800F22B81544B1B68D0
:100C000013F0020FF4D05248036823F0F80123696F
:100C1000F82292FAA2F2B2FA82F293400B430360F6
:100C200011E000224B4B1A60FFF7D2FC054605E0AD
:100C3000FFF7CEFC401B022800F20D81444B1B68DD
:100C400013F0020FF4D1236813F0080F26D0636964
:100C500093B10122404B1A60FFF7BAFC054605E04C
:100C6000FFF7B6FC401B022800F2F780384B5B6FA1
:100C700013F0020FF4D011E00022374B1A60FFF797
:100C8000A7FC054605E0FFF7A3FC401B022800F285
:100C9000E6802F4B5B6F13F0020FF4D1236813F043
:100CA000040F69D000230193294B1A6C42F0805243
:100CB0001A641B6C03F080530193019B274A13684D
:100CC00043F480731360FFF783FC054605E0FFF7EC
:100CD0007FFC401B022800F2C480204B1B6813F4E9
:100CE000807FF4D0A368012B05D1194A136F43F01C
:100CF0000103136714E0052B09D1154B1A6F42F05D
:100D000004021A671A6F42F001021A6708E0104BDA
:100D10001A6F22F001021A671A6F22F004021A6792
:100D2000A3688BB1FFF754FC054607E0FFF750FCC2
:100D3000401B41F28833984200F29580044B1B6FB0
:100D400013F0020FF2D017E0FFF742FC05460EE069
:100D50000038024000004742800E474200700040C9
:100D6000FFF736FC401B41F2883398427DD8454B53
:100D70001B6F13F0020FF3D1A369002B77D0414A08
:100D8000926802F00C02082A73D0022B46D100228E
:100D90003D4B1A60FFF71CFC054604E0FFF718FC0A
:100DA000401B022867D8374B1B6813F0007FF5D132
:100DB000E169236A1943636A47F6C07292FAA2F2A4
:100DC000B2FA82F293401943A36A5B085A1E4FF4A9
:100DD000403393FAA3F3B3FA83F302FA03F30B431A
:100DE000E26A4FF0706191FAA1F1B1FA81F18A40A3
:100DF0001343244A53600122234B1A60FFF7E8FB98
:100E0000044604E0FFF7E4FB001B022835D81D4B25
:100E10001B6813F0007FF5D0002031E000221A4B50
:100E20001A60FFF7D5FB044604E0FFF7D1FB001B77
:100E3000022824D8134B1B6813F0007FF5D1002043
:100E40001EE001201CE003201AE0032018E001202E
:100E500016E0032014E0032012E0032010E003203A
:100E60000EE003200CE003200AE0032008E000204D
:100E700006E0012004E0032002E0032000E003205C
:100E800003B030BD0038024060004742254B9B68EC
:100E900003F00C03042B3FD0082B01D022487047ED
:100EA00010B4204B586800F03F005B6813F4800FCB
:100EB00010D01E4BB3FBF0F01A4B5A6847F6C071C6
:100EC0000A4091FAA1F3B3FA83F322FA03F303FB86
:100ED00000F310E0144BB3FBF0F0124B5A6847F6E6
:100EE000C07402EA040194FAA4F2B2FA82F221FA7E
:100EF00002F202FB00F30B4A506800F440324FF458
:100F0000403090FAA0F0B0FA80F022FA00F0013000
:100F10004000B3FBF0F001E0044870475DF8044B7B
:100F2000704700BF003802400024F40000127A002D
:100F300070B5674B1B6803F00F038B4208D2CBB22E
:100F4000634A1370136803F00F03994240F0AE80B8
:100F5000036813F0020F06D05E4CA36823F0F00282
:100F600083681343A3600D460446036813F0010F22
:100F700060D04268012A05D1564B1B6813F4003F2C
:100F80000FD195E0931E012B05D8524B1B6813F02F
:100F9000007F06D18EE04F4B1B6813F0020F00F06C
:100FA0008B804C498B6823F0030313438B60FFF75E
:100FB0000FFB06466368012B0ED106E0FFF708FB26
:100FC000801B41F28833984278D8424B9B6803F0EB
:100FD0000C03042BF2D12DE0022B0ED106E0FFF71B
:100FE000F7FA801B41F28833984269D8394B9B68E5
:100FF00003F00C03082BF2D11CE0032B15D106E003
:10100000FFF7E6FA801B41F2883398425AD8314BF9
:101010009B6803F00C030C2BF2D10BE0FFF7D8FA1E
:10102000801B41F2883398424ED82A4B9B6813F0BC
:101030000C0FF3D1264B1B6803F00F039D4207D220
:10104000EAB2234B1A701B6803F00F039D423DD197
:10105000236813F0040F06D01E498B6823F4E05276
:10106000E36813438B60236813F0080F07D0194A15
:10107000936823F46043216943EAC1039360FFF757
:1010800005FF144B9B6803F0F002F02393FAA3F3DF
:10109000B3FA83F322FA03F30F4AD35CD8400F4B21
:1010A00018600F20FFF7C0F9002070BD012070BD4F
:1010B000012070BD012070BD012070BD032070BDF6
:1010C000032070BD032070BD032070BD012070BDE2
:1010D000003C024000380240382F00080000002089
:1010E000014B1868704700BF0000002008B5FFF7EB
:1010F000F7FF084B9B6803F4E0524FF4E05393FA78
:10110000A3F3B3FA83F322FA03F3034AD35CD84080
:1011100008BD00BF00380240482F00080F230360BD
:101120000B4B9A6802F0030242609A6802F0F002E8
:1011300082609A6802F4E052C2609B68DB0803F4A4
:10114000E0530361034B1B6803F00F030B60704710
:1011500000380240003C024010B582B000230193E9
:10116000244B1A6C42F080521A641B6C03F08053BB
:101170000193019B4FF4803393FAA3F3B3FA83F303
:1011800003F1845303F560339B0001221A60FFF7DB
:101190001FFA044605E0FFF71BFA001BB0F57A7F43
:1011A00022D8154B5B6813F4803FF4D04FF4003322
:1011B00093FAA3F3B3FA83F303F1845303F5603393
:1011C0009B0001221A60FFF703FA044605E0FFF7CF
:1011D000FFF9001BB0F57A7F08D8074B5B6813F462
:1011E000003FF4D0002002E0032000E0032002B022
:1011F00010BD00BF0038024000700040074AD368AD
:1012000023F4E0631B041B0C000200F4E0601843AD
:1012100040F0BF6040F40030D060704700ED00E067
:1012200030B4164BDB68C3F30223C3F10704042C6C
:1012300028BF04241D1D062D01D9DD1E00E0002558
:10124000012303FA04F4013C2140A940AB40013BD7
:101250001A400A43002806DA00F00F001201D2B249
:10126000074B1A5407E01201D2B200F1604000F5BA
:10127000614080F8002330BC704700BF00ED00E003
:1012800014ED00E0420900F01F00012303FA00F012
:10129000014B43F82200704700E100E070B588B0D0
:1012A000044660B900230193174B1A6B42F04002C9
:1012B0001A631B6B03F040030193019B0DE00128AF
:1012C0000BD100230293104B1A6B42F040021A63B9
:1012D0001B6B03F040030293029B0C4B33F814602A
:1012E000039601230493059302230693084D03A953
:1012F00055F82400FFF772F90022314655F8240012
:10130000FFF758FA08B070BD00380240502F0008AF
:101310000400002008B5044B33F81010034B53F8B9
:101320002000FFF74DFA08BD502F000804000020F0
:1013300000F1080343604FF0FF328260C360036135
:1013400000230360704700BF00230361704700BFA4
:1013500043684B609A688A609A6851609960086136
:10136000036801330360704730B40D68B5F1FF3F87
:1013700001D1026907E000F1080200E01A46536853
:101380001C68A542FAD253684B6099608A6051602C
:10139000086103680133036030BC70470369426829
:1013A000816891608268416851605A68904201D1B9
:1013B00082685A60002202611A68013A1A6018684D
:1013C000704700BF10B5044601F03CFAA26BE36B16
:1013D0009A4201D1012400E0002401F055FA204690
:1013E00010BD00BF10B5044601F02CFAA36B0BB979
:1013F000012400E0002401F047FA204610BD00BFA0
:1014000070B504461646856B026C3AB9036843BB57
:10141000406801F051F90023636029E06EB98068EB
:10142000FEF7F4FEA268236C1344A3606268934243
:1014300019D32368A36000201AE0C068FEF7E6FE17
:10144000236C5B42E2681A44E26021688A4202D25D
:1014500062681344E360022E07D145B1013D0020CC
:1014600006E0002004E0002002E0002000E0002070
:101470000135A56370BD00BF026C72B110B50346A3
:10148000C4681444C4604068844201D31868D860BA
:101490000846D968FEF7BAFE10BD704738B5054654
:1014A00001F0D0F995F8454064B20AE06B6A53B197
:1014B00005F1240001F05AF808B101F0E7F8013C09
:1014C00064B2002CF2DCFF2385F8453001F0DCF932
:1014D00001F0B8F995F8444064B20AE02B6953B1C1
:1014E00005F1100001F042F808B101F0CFF8013C1D
:1014F00064B2002CF2DCFF2385F8443001F0C4F91B
:1015000038BD00BF38B540B94FF0500383F31188A0
:10151000BFF36F8FBFF34F8FFEE704460D4601F018
:1015200091F92168E26B236C03FB021060600020DC
:10153000A063A160013A02FB0313E360FF2384F878
:10154000443084F845307DB92369ABB104F1100013
:1015500001F00CF880B14FF08052094B1A60BFF3D4
:101560004F8FBFF36F8F07E004F11000FFF7E0FE2D
:1015700004F12400FFF7DCFE01F086F9012038BDFC
:1015800004ED00E038B51D46049C0B4609B9246003
:1015900000E02260E063236401212046FFF7B2FFF0
:1015A00084F84C5038BD00BF40B94FF0500383F36E
:1015B0001188BFF36F8FBFF34F8FFEE7F0B583B095
:1015C000034611B101FB00F000E000201D46174664
:1015D0000C46503001F0ECFA064638B100903B461C
:1015E00000F1500221462846FFF7CCFF304603B0F9
:1015F000F0BD00BFF0B585B0019240B94FF0500387
:1016000083F31188BFF36F8FBFF34F8FFEE704465C
:1016100019B9026C1AB9012202E0012200E000228D
:1016200042B94FF0500383F31188BFF36F8FBFF3BC
:101630004F8FFEE7022B03D1E26B012A02D102E0B9
:10164000012200E0002242B94FF0500383F31188D9
:10165000BFF36F8FBFF34F8FFEE71D460E4601F0BD
:101660001BF818B9019B1BB9012302E0012300E01C
:10167000002343B94FF0500383F31188BFF36F8FFA
:10168000BFF34F8FFEE7002701F0DCF8A26BE36B9E
:101690009A4201D3022D21D12A4631462046FFF736
:1016A000AFFE636A6BB104F1240000F05FFF88B104
:1016B0004FF08052324B1A60BFF34F8FBFF36F8FE2
:1016C00008E038B14FF080522D4B1A60BFF34F8FB6
:1016D000BFF36F8F01F0D8F801204EE0019B1BB9DA
:1016E00001F0D2F8002048E01FB902A800F084FF02
:1016F000012701F0C9F800F039FD01F0A3F894F8D2
:1017000044305BB2B3F1FF3F02D1002384F8443090
:1017100094F845305BB2B3F1FF3F02D1002384F867
:10172000453001F0B1F801A902A800F071FFF0B94D
:101730002046FFF747FEA0B1019904F1100000F028
:10174000E1FE2046FFF7AAFE00F0B0FD00289BD185
:101750004FF080520A4B1A60BFF34F8FBFF36F8F69
:1017600092E72046FFF79AFE00F0A0FD8CE72046A6
:10177000FFF794FE00F09AFD002005B0F0BD00BF19
:1017800004ED00E02DE9F84340B94FF0500383F336
:101790001188BFF36F8FBFF34F8FFEE7044619B96F
:1017A000006C18B9012002E0012000E0002040B9DF
:1017B0004FF0500383F31188BFF36F8FBFF34F8F48
:1017C000FEE7022B03D1E06B012802D102E00120E9
:1017D00000E0002040B94FF0500383F31188BFF3BD
:1017E0006F8FBFF34F8FFEE71F469046894601F08B
:1017F00053F9EFF311864FF0500383F31188BFF3D1
:101800006F8FBFF34F8FA26BE36B9A4201D3022F0E
:101810001ED194F845506DB23A4649462046FFF72E
:10182000EFFDB5F1FF3F0DD1636A9BB104F12400D8
:1018300000F09CFE80B1B8F1000F0FD00120C8F875
:1018400000000CE06B1C5BB284F84530012006E020
:10185000002004E0012002E0012000E0012086F3E6
:101860001188BDE8F88300BFF0B585B0019240B99A
:101870004FF0500383F31188BFF36F8FBFF34F8F87
:10188000FEE7044619B9036C1BB9012302E00123EA
:1018900000E0002343B94FF0500383F31188BFF3F6
:1018A0006F8FBFF34F8FFEE70E4600F0F5FE18B9BD
:1018B000019B1BB9012302E0012300E0002343B98F
:1018C0004FF0500383F31188BFF36F8FBFF34F8F37
:1018D000FEE7002700F0B6FFA56BC5B131462046F4
:1018E000FFF7CAFD013DA563236963B104F1100050
:1018F00000F03CFE38B14FF08052304B1A60BFF31D
:101900004F8FBFF36F8F00F0BFFF012053E0019BAB
:101910001BB900F0B9FF00204DE01FB902A800F08C
:101920006BFE012700F0B0FF00F020FC00F08AFF02
:1019300094F844305BB2B3F1FF3F02D1002384F846
:10194000443094F845305BB2B3F1FF3F02D100233D
:1019500084F8453000F098FF01A902A800F058FE75
:10196000F0B92046FFF73EFDA0B1019904F1240033
:1019700000F0C8FD2046FFF791FD00F097FC00281D
:10198000A8D14FF080520D4B1A60BFF34F8FBFF3B9
:101990006F8F9FE72046FFF781FD00F087FC99E7F6
:1019A0002046FFF77BFD00F081FC2046FFF71AFD83
:1019B00000288FD0002005B0F0BD00BF04ED00E08E
:1019C00000230BE0074A52F8332032B9054A42F8A7
:1019D000331002EBC303586070470133072BF1D972
:1019E000704700BF3846002070B504460D461646C5
:1019F00000F028FF94F844305BB2B3F1FF3F02D10E
:101A0000002384F8443094F845305BB2B3F1FF3FD3
:101A100002D1002384F8453000F036FFA36B2BB9C8
:101A20003246294604F1240000F084FD2046FFF7E9
:101A300035FD70BD064B1A681368B3FA83F35B0972
:101A4000036013B9D368186870470020704700BF5F
:101A50005C04002008B54160006191420AD8D21AA6
:101A600083699A4211D2011D0A4B1868FFF77CFC6A
:101A7000002008BD9A4201D2994208D2011D064BAE
:101A80001868FFF771FC002008BD012008BD012087
:101A900008BD00BF900400205C04002038B500F0B1
:101AA000D1FE0E4B1B68B3B90D4D2846FFF740FC25
:101AB0000C4C2046FFF73CFC0B4B1D600B4B1C6095
:101AC00000220C210A20FFF76FFD044B186010B1B3
:101AD0000749FFF775FF00F0D7FE38BD8C040020E2
:101AE00060040020740400205C04002090040020A6
:101AF000542F000800B583B0FFF7D0FF0E4B1B68D2
:101B00005BB10E4B01930223009300234FF48072CC
:101B10000B490C4800F0B6FA00E0002040B94FF045
:101B2000500383F31188BFF36F8FBFF34F8FFEE72E
:101B300003B05DF804FB00BF8C0400209404002077
:101B40005C2F0008E91D000840B94FF0500383F3F3
:101B50001188BFF36F8FBFF34F8FFEE730B585B0AD
:101B600015460446124A1068F0B11A4601910295D2
:101B70000394052913DC00F08FFD022807D1002310
:101B8000089A01A90A480068FFF734FD0DE0002318
:101B90001A4601A906480068FFF72CFD05E000235E
:101BA00001A9FFF7EFFD00E0002005B030BD00BF48
:101BB0008C04002070B582B029E0DB681E68DC6808
:101BC000251D2846FFF7EAFB636A20469847E3692C
:101BD000012B1CD1A36933449E4207D26360246168
:101BE0002946114B1868FFF7BFFB10E00021009158
:101BF0000B4632462046FFF7A7FF40B94FF050038F
:101C000083F31188BFF36F8FBFF34F8FFEE7064B4F
:101C10001B681A68002AD0D1044A1068024908607B
:101C2000136002B070BD00BF5C040020900400206F
:101C300038B5054600F0A2FA0446074B1B689842E7
:101C400004D2FFF7B7FF01232B6001E000232B60D4
:101C5000014B1C60204638BD8804002070B582B05E
:101C600005460E46134B1B68DB68DC68201DFFF73A
:101C700095FBE369012B18D1A1692B463246294413
:101C80002046FFF7E7FE80B1002100910B462A466F
:101C90002046FFF759FF40B94FF0500383F31188F6
:101CA000BFF36F8FBFF34F8FFEE7636A20469847FD
:101CB00002B070BD5C04002070B582B006460C46D0
:101CC00000F054FA01A8FFF7B3FF019B1BBB0546C8
:101CD00044B9B04206D300F0E9FA29463046FFF78E
:101CE000BDFF1AE02CB10E4B1B681C68B4FA84F4DB
:101CF00064092246711B0B4B1868FFF775FE00F054
:101D0000D5FA50B94FF08052074B1A60BFF34F8F8E
:101D1000BFF36F8F01E000F0C9FA02B070BD00BFE1
:101D2000900400208C04002004ED00E030B587B062
:101D30004DE0039B002B4ADB059C636913B1201D1A
:101D4000FFF72CFB02A8FFF773FF039B092B3ED87C
:101D5000DFE803F00505053D273A05053D27049911
:101D6000A5690B46024629442046FFF773FE70B36F
:101D7000636A20469847E369012B28D1A2690021B4
:101D800000910B46049802442046FFF7DDFEF0B9AF
:101D90004FF0500383F31188BFF36F8FBFF34F8F62
:101DA000FEE70499A16141B94FF0500383F3118814
:101DB000BFF36F8FBFF34F8FFEE703460246014428
:101DC0002046FFF747FE02E0204600F073FF0022A6
:101DD00003A9044B1868FFF747FD0028A9D107B0F5
:101DE00030BD00BF8C04002000B583B001A8FFF710
:101DF00021FE0199FFF760FFFFF798FFF6E700BFAC
:101E00000A4B1B681B680BB9012300E0002323B1B8
:101E10004FF0FF32064B1A607047044B1B68DB68BB
:101E2000DB685A68024B1A60704700BF9C040020B0
:101E30008C05002010B50446006B00F03BFF2046E7
:101E400000F038FF10BD00BF2DE9F04781460D4678
:101E500017469A46089EDDF824800A9C9200A52128
:101E6000206B00F095FF236B07F18042013A03EBF2
:101E7000820727F00707002306E0E95CE21882F8F2
:101E80003410EA5C12B101330F2BF6D9002384F829
:101E90004330072E00D90726E662E6640025256553
:101EA000201DFFF751FA04F11800FFF74DFA2461E5
:101EB000C6F10806A6616462656584F8585052460A
:101EC0004946384600F090FC2060B8F1000F01D080
:101ED000C8F80040BDE8F08738B5002407E004EBFF
:101EE000840293000E481844FFF722FA0134072CAD
:101EF000F5D90C4D2846FFF71BFA0B4C2046FFF78F
:101F000017FA0A48FFF714FA0948FFF711FA0948C7
:101F1000FFF70EFA084B1D60084B1C6038BD00BF70
:101F2000C004002094050020A805002070050020B2
:101F3000A4040020BC0500209C040020B80400205C
:101F400010B5044600F07EFC214A1368013313608B
:101F5000204B1B683BB91F4B1C601368012B0DD134
:101F6000FFF7BAFF0AE01C4B1B683BB9194B1B6813
:101F7000DA6AE36A9A4201D8164B1C60174A136862
:101F8000013313606364E36A012202FA03F1144827
:101F900002680A43026003EB83039A00211D114883
:101FA0001044FFF7D5F900F06FFC0B4B1B686BB1C9
:101FB000084B1B68DA6AE36A9A4207D24FF08052F4
:101FC000094B1A60BFF34F8FBFF36F8F10BD00BF77
:101FD000680500206C050020A0040020900500206A
:101FE000D0050020C004002004ED00E070B50446D8
:101FF0000E461D4B1D681D4B18680430FFF7CEF9C7
:1020000050B91A4B1B68DA6A012303FA02F2184925
:102010000B6823EA02030B60B4F1FF3F07D136B12E
:10202000124B196804311348FFF792F970BD2C4424
:102030000E4B1B685C60A54207D90F4B18680B4B11
:1020400019680431FFF790F970BD0C4B1868074B05
:1020500019680431FFF788F9094B1B689C4201D2CB
:10206000074B1C6070BD00BF880500206C05002078
:10207000D0050020BC050020B80400209C040020EE
:102080008C0500202DE9F04385B006460F46154625
:102090009846900000F08CFD60B181465C2000F015
:1020A00087FD044610B1C0F8309004E0484600F0C7
:1020B00001FE00E000248CB10023039302940D9BE9
:1020C00001930C9B009343462A4639463046FFF75E
:1020D000BBFE2046FFF734FF012001E04FF0FF3048
:1020E00005B0BDE8F08300BF00B583B0194B019384
:1020F00000230093802218491848FFF7C3FF0128E6
:1021000001D1FFF7F7FC012814D14FF0500383F3FE
:102110001188BFF36F8FBFF34F8F4FF0FF32104B1B
:102120001A6001220F4B1A6000220F4B1A6000F058
:102130002BFC0BE0B0F1FF3F08D14FF0500383F3CD
:102140001188BFF36F8FBFF34F8FFEE703B05DF8C9
:1021500004FB00BF84050020642F00084924000808
:102160008C050020A004002088050020024A136886
:1021700001331360704700BF60050020014B1868F1
:10218000704700BF88050020F8B53D4B1B68002B49
:1021900069D13C4B1D6801351D60C5B93A4B1B68C0
:1021A0001B6843B14FF0500383F31188BFF36F8F67
:1021B000BFF34F8FFEE7344A1168344B1868106044
:1021C0001960334A136801331360FFF719FE314B6E
:1021D0001B689D4203D200243AE0012400E0002461
:1021E000294B1B681B680BB9012300E0002323B1B6
:1021F0004FF0FF32274B1A602AE0234B1B68DB6845
:10220000DE6873689D4202D2224A136020E0371DC7
:102210003846FFF7C3F8B36A1BB106F11800FFF7A1
:10222000BDF8F36A012202FA03F11B4802680A436F
:10223000026003EB83039A00394618481044FFF705
:1022400087F8F26A164B1B68DB6A9A42C5D2C7E769
:10225000134B1B68DB6A03EB83039A000F4B9B58FD
:10226000012B06D806E00F4A1368013313600024DF
:1022700000E001240C4B1B6803B101242046F8BD8B
:1022800060050020880500209C040020B804002080
:10229000980400208C050020D0050020C0040020F8
:1022A0006C050020BC040020D405002038B5344B58
:1022B0001B6843B94FF0500383F31188BFF36F8F4E
:1022C000BFF34F8FFEE700F0BDFA2D4B1A68013ABD
:1022D0001A601B68002B4CD12A4B1B6833BB0024AF
:1022E0004AE0294BDB68DC6804F11800FFF756F878
:1022F000251D2846FFF752F8E36A012202FA03F18E
:10230000224802680A43026003EB83039A002946CD
:102310001F481044FFF71CF8E26A1E4B1B68DB6A7B
:102320009A4204D301221C4B1A6000E00024164B91
:102330001B68002BD5D10CB1FFF762FD174B1C6851
:1023400054B1FFF721FF10B10122134B1A60013C79
:10235000F7D10022114B1A600F4B1B685BB14FF095
:1023600080520F4B1A60BFF34F8FBFF36F8F012462
:1023700002E0002400E0002400F086FA204638BD88
:10238000600500206805002070050020D0050020B1
:10239000C00400206C050020D4050020BC040020EF
:1023A00004ED00E010B5A8B10446104B1B6843B122
:1023B0004FF0500383F31188BFF36F8FBFF34F8F3C
:1023C000FEE7FFF7D3FE00212046FFF70FFEFFF7E1
:1023D0006DFF00E0002038B94FF08052044B1A60C6
:1023E000BFF34F8FBFF36F8F10BD00BF600500209C
:1023F00004ED00E010B51BE0FFF7B8FE0F4B1C68C2
:10240000FFF754FFA4B100F01DFA0C4BDB68DC6849
:10241000201DFEF7C3FF0A4A1368013B1360094AF7
:102420001368013B136000F02FFA2046FFF702FD0E
:10243000044B1B68002BDFD110BD00BFA40400209B
:10244000680500206405002008B5FFF7D3FF064BA0
:102450001B68012BF9D94FF08052044B1A60BFF36F
:102460004F8FBFF36F8FF0E7C004002004ED00E052
:102470001F4B1B681BB101221E4B1A6070470022C4
:102480001C4B1A601C4B1B68B3FA83F3DBB2C3F11D
:102490001F0303EB83018A0018498A5842B94FF0A1
:1024A000500383F31188BFF36F8FBFF34F8FFEE7A5
:1024B00030B4124D9900CA189000284442685468FC
:1024C000446019448A0008322A44944205D1606865
:1024D00003EB83018A002A44506003EB83039A00D4
:1024E000064B1A445368DA68054B1A6030BC7047D3
:1024F00060050020D4050020D0050020C004002085
:102500006C05002040B94FF0500383F31188BFF3EE
:102510006F8FBFF34F8FFEE710B50C46044B196861
:102520001831FEF721FF01212046FFF75FFD10BDA6
:102530006C05002038B540B94FF0500383F3118883
:10254000BFF36F8FBFF34F8FFEE70C461546064A69
:1025500011681831FEF7FCFE0DB14FF0FF3429462B
:102560002046FFF743FD38BD6C05002038B5C36831
:10257000DC6844B94FF0500383F31188BFF36F8FC9
:10258000BFF34F8FFEE704F118052846FEF706FF5C
:10259000134B1B68A3B9251D2846FEF7FFFEE36A0F
:1025A000012202FA03F10F4802680A43026003EBBA
:1025B00083039A0029460C481044FEF7C9FE03E045
:1025C00029460A48FEF7C4FEE26A094B1B68DB6A2B
:1025D0009A4203D90120074B186038BD002038BD4E
:1025E00060050020D0050020C004002070050020F8
:1025F0006C050020D4050020034B1B680360034BCF
:102600001B684360704700BF9804002088050020C5
:10261000F8B540B94FF0500383F31188BFF36F8FC3
:10262000BFF34F8FFEE7044641B94FF0500383F3E9
:102630001188BFF36F8FBFF34F8FFEE70D4600F099
:1026400001F9104B18686168421A2B68B3F1FF3F1B
:102650000FD027680C4E3668B74201D088420AD2A4
:102660009A420AD29B1A2B602046FFF7C5FF00242E
:1026700004E0002402E0012400E0012400F004F959
:102680002046F8BD88050020980400200122014B57
:102690001A607047D4050020054B1B6823B1054B19
:1026A0001B681BB90220704701207047002070474B
:1026B000A00400206005002000284BD038B5034658
:1026C000274A1268904208D04FF0500383F31188D4
:1026D000BFF36F8FBFF34F8FFEE7026D42B94FF02C
:1026E000500383F31188BFF36F8FBFF34F8FFEE763
:1026F000013A0265C06AD96C88422DD072BB1C4673
:102700001D1D2846FEF74AFE70B9E26A02EB8201FF
:102710008B001449CB583BB9012303FA02F212494A
:102720000B6823EA02030B60E36CE362C3F1080267
:10273000A261012404FA03F00B490A6802430A600B
:1027400003EB83039A00294606481044FEF700FE77
:10275000204638BD00207047002038BD002038BD1D
:102760006C050020C0040020D005002082B00023AA
:1027700001930D4B1B68B3F1FF3F08D04FF050039E
:1027800083F31188BFF36F8FBFF34F8FFEE74FF0D6
:10279000500383F31188BFF36F8FBFF34F8F019BFB
:1027A000002BFCD002B070470C00002008480068E5
:1027B000006880F308884FF0000080F3148862B648
:1027C00061B6BFF34F8FBFF36F8F00DF00BF000014
:1027D00008ED00E0DFF80C00016841F470010160D1
:1027E0007047000088ED00E04FF0807340F8043C33
:1027F00021F0010140F8081C054B40F80C3C40F862
:10280000202C6FF0020340F8243C4438704700BF8E
:102810006D2700080000000000000000000000001C
:10282000074B19680868B0E8F04F80F30988BFF3D8
:102830006F8F4FF0000080F311887047AFF3008076
:102840006C0500204FF0500383F31188BFF36F8FA6
:10285000BFF34F8F0A4A136801331360012B0DD168
:10286000084B1B6813F0FF0F08D04FF0500383F3A1
:102870001188BFF36F8FBFF34F8FFEE7704700BF24
:102880000C00002004ED00E0094B1B6843B94FF039
:10289000500383F31188BFF36F8FBFF34F8FFEE7B1
:1028A000013B034A13600BB983F31188704700BFE3
:1028B0000C000020000000000000000000000000EC
:1028C000EFF30980BFF36F8F154B1A681EF0100FDE
:1028D00008BF20ED108A20E9F04F10604DF8043D4C
:1028E0004FF0500080F31188BFF34F8FBFF36F8F0D
:1028F000FFF7BEFD4FF0000080F3118808BC196897
:102900000868B0E8F04F1EF0100F08BFB0EC108A56
:1029100080F30988BFF36F8F704700BFAFF300806B
:102920006C05002008B54FF0500383F31188BFF306
:102930006F8FBFF34F8FFFF727FC18B14FF0805216
:10294000024B1A60002383F3118808BD04ED00E0F8
:10295000084A0023136008490B60084B1B680849AC
:10296000A1FB03139B09013B06490B60072313607E
:10297000704700BF10E000E018E000E00000002019
:10298000D34D621014E000E03A4B1A683A4B9A4279
:1029900008D14FF0500383F31188BFF36F8FBFF35B
:1029A0004F8FFEE7334B1A68344B9A4208D14FF0F1
:1029B000500383F31188BFF36F8FBFF34F8FFEE790
:1029C00010B582B02E4B1A78D2B20192FF221A7043
:1029D0001B78DBB28DF803309DF8033003F0500311
:1029E000284A13700722284B1A6009E0264A136808
:1029F000013B13609DF803305B00DBB28DF80330C0
:102A00009DF8033013F0800FF0D11F4B1B68032B90
:102A100008D04FF0500383F31188BFF36F8FBFF3DB
:102A20004F8FFEE71B0203F4E063174A1360019B1C
:102A3000DBB2134A1370154B1A6842F470021A6025
:102A40001A6842F070421A60FFF782FF0024104BB0
:102A50001C60FFF7BFFE0F4A136843F0404313604A
:102A6000FFF7A4FEFFF704FDFFF780FE204602B04B
:102A700010BD00BF00ED00E071C20F4170C20F41F8
:102A800000E400E0D8050020DC05002020ED00E097
:102A90000C00002034EF00E0EFF305830F2B0FD97B
:102AA000104A9B5CDBB2104A1278934208D24FF076
:102AB000500383F31188BFF36F8FBFF34F8FFEE78F
:102AC0000A4B1B6803F4E063094A1268934208D971
:102AD0004FF0500383F31188BFF36F8FBFF34F8F15
:102AE000FEE77047F0E300E0D80500200CED00E0C1
:102AF000DC050020124A12F0070F07D0D11D21F08B
:102B00000701C1F5804313440A4601E04FF48043B6
:102B10000C480260002141601344083B23F0070386
:102B20000948036059601960991A51601360074B96
:102B30001960074B19604FF00042064B1A6070474E
:102B4000F0050020E8050020E4050020F445002001
:102B5000E0050020F0450020134B00E013461A6802
:102B60008242FBD310B45C681919884203D14168D2
:102B7000214459601846446801198A420CD10B4916
:102B800009688A4206D05268224442601A68126874
:102B9000026002E0016000E00260984200D018602C
:102BA0005DF8044B704700BFE8050020E4050020F5
:102BB00070B50446FFF7DAFA394B1B680BB9FFF71B
:102BC00099FF384B1B681C4253D194B1083414F060
:102BD000070F0ED024F00704083404F0070343B1B4
:102BE0004FF0500383F31188BFF36F8FBFF34F8F04
:102BF000FEE7002C3FD02C4B1B689C423DD82B4B52
:102C00001D6801E02B4615466A68944202D92A687D
:102C1000002AF7D1224A1268954230D01E68083641
:102C20002A681A606B681B1B102B10D9281910F02A
:102C3000070F08D04FF0500383F31188BFF36F8F55
:102C4000BFF34F8FFEE743606C60FFF785FF6A6854
:102C500015490B689B1A0B60154909688B4201D214
:102C600013490B600F4B1B681A436A6000232B60EB
:102C700006E0002604E0002602E0002600E0002630
:102C8000FFF714FB16F0070F08D04FF0500383F343
:102C90001188BFF36F8FBFF34F8FFEE7304670BDD3
:102CA000E4050020F0450020E0050020E8050020B4
:102CB000F4450020A0B338B50346A0F1080550F84C
:102CC000042C1849096812EA010408D14FF0500396
:102CD00083F31188BFF36F8FBFF34F8FFEE750F878
:102CE000080C40B14FF0500383F31188BFF36F8F8E
:102CF000BFF34F8FFEE794B188B91C4622EA010268
:102D000043F8042CFFF732FA54F8043C064A1168E1
:102D10000B4413602846FFF71FFFFFF7C7FA38BDC3
:102D2000704700BFF0450020E005002008B5034BC8
:102D300013F82000FEF7B2FA08BD00BF1000002013
:102D400070B50F4E0F4D761BB61018BF002405D07E
:102D5000013455F8043B9847A642F9D10A4E0B4D71
:102D6000761B00F0D9F8B61018BF002406D0013445
:102D700055F8043B9847A642F9D170BD70BD00BF1D
:102D8000702F0008702F0008782F0008702F00089F
:102D900070B4840746D0541E002A41D0CDB20346F9
:102DA00002E0621EE4B3144603F8015B9A07F8D10F
:102DB000032C2ED9CDB245EA05250F2C45EA054551
:102DC00019D903F110022646103E0F2E42F8105C6E
:102DD00042F80C5C42F8085C42F8045C02F1100214
:102DE000F2D8A4F1100222F00F0204F00F04103206
:102DF000032C13440DD91E462246043A032A46F8F2
:102E0000045BFAD8221F22F003020432134404F0B8
:102E100003042CB1C9B21C4403F8011BA342FBD12B
:102E200070BC704714460346C2E700BF024B13B1A3
:102E3000024800F005B87047000000004D2E000861
:102E4000002301461A46184600F014B838B5074D5D
:102E5000074C2C1BA41005D0013C55F8043D9847A5
:102E6000002CF9D1BDE8384000F05CB87C2F000898
:102E7000782F00082DE9F047254C2568D5F8484102
:102E80000646884692469946C4B360681F2817DCF8
:102E9000431C76B104EB80050122C5F888A0D4F864
:102EA000881182401143022EC4F88811C5F8089198
:102EB0001ED00230636044F820800020BDE8F08717
:102EC000144B03B34FF4C870AFF300800446D0B185
:102ED000D5F84831002780E88800C5F848413846D1
:102EE0000123C4F88871C4F88C71002EE1D0D1E7B9
:102EF000D4F88C110A43C4F88C21DAE705F5A674DE
:102F0000C5F84841C1E74FF0FF30BDE8F08700BF8A
:102F10006C2F000800000000F8B500BFF8BC08BC2A
:102F20009E467047F8B500BFF8BC08BC9E46704787
:102F300074657374000000000000000000000000D1
:102F4000010203040607080900000000010203044F
:102F500000200040546D725100000000546D72203A
:102F60005376630049444C450000000018000020DF
:082F70002D2E0008D501000818
:042F7800B10100089B
:102F7C000024F4000018024000180240AAAAAAAAD1
:102F8C00000000000100000000000000040300200D
:102F9C006C030020D403002000000000000000009F
:102FAC000000000000000000000000000000000015
:102FBC000000000000000000000000000000000005
:102FCC0000000000000000000000000000000000F5
:102FDC0000000000000000000000000000000000E5
:102FEC0000000000000000000000000000000000D5
:102FFC0000000000000000000000000000000000C5
:10300C0000000000000000000000000000000000B4
:10301C0000000000000000000000000000000000A4
:10302C000000000000000000000000000000000094
:10303C0001000000000000000E33CDAB34126DE631
:10304C00ECDE05000B00000000000000000000009A
:10305C000000000000000000000000000000000064
:10306C000000000000000000000000000000000054
:10307C000000000000000000000000000000000044
:10308C000000000000000000000000000000000034
:0400000508000535B5
:00000001FF
